{
  "_format": "hh-sol-artifact-1",
  "contractName": "DataStorage",
  "sourceName": "contracts/DataStorage.sol",
  "abi": [
    {
      "inputs": [],
      "stateMutability": "nonpayable",
      "type": "constructor"
    },
    {
      "inputs": [
        {
          "internalType": "address",
          "name": "owner",
          "type": "address"
        }
      ],
      "name": "OwnableInvalidOwner",
      "type": "error"
    },
    {
      "inputs": [
        {
          "internalType": "address",
          "name": "account",
          "type": "address"
        }
      ],
      "name": "OwnableUnauthorizedAccount",
      "type": "error"
    },
    {
      "anonymous": false,
      "inputs": [
        {
          "indexed": true,
          "internalType": "bytes32",
          "name": "dataHash",
          "type": "bytes32"
        },
        {
          "indexed": true,
          "internalType": "address",
          "name": "recipientBChain",
          "type": "address"
        },
        {
          "indexed": false,
          "internalType": "uint256",
          "name": "amountAfterFee",
          "type": "uint256"
        },
        {
          "indexed": false,
          "internalType": "uint256",
          "name": "feeAmount",
          "type": "uint256"
        },
        {
          "indexed": true,
          "internalType": "address",
          "name": "locker",
          "type": "address"
        }
      ],
      "name": "ImaLockedAndMintRequested",
      "type": "event"
    },
    {
      "anonymous": false,
      "inputs": [
        {
          "indexed": true,
          "internalType": "address",
          "name": "previousOwner",
          "type": "address"
        },
        {
          "indexed": true,
          "internalType": "address",
          "name": "newOwner",
          "type": "address"
        }
      ],
      "name": "OwnershipTransferred",
      "type": "event"
    },
    {
      "inputs": [],
      "name": "feeRate",
      "outputs": [
        {
          "internalType": "uint256",
          "name": "",
          "type": "uint256"
        }
      ],
      "stateMutability": "view",
      "type": "function"
    },
    {
      "inputs": [
        {
          "internalType": "bytes32",
          "name": "_dataHash",
          "type": "bytes32"
        }
      ],
      "name": "isDataHashProcessed",
      "outputs": [
        {
          "internalType": "bool",
          "name": "",
          "type": "bool"
        }
      ],
      "stateMutability": "view",
      "type": "function"
    },
    {
      "inputs": [
        {
          "internalType": "bytes32",
          "name": "_dataHash",
          "type": "bytes32"
        },
        {
          "internalType": "address",
          "name": "_recipientBChain",
          "type": "address"
        }
      ],
      "name": "lockImaAndRequestMint",
      "outputs": [],
      "stateMutability": "payable",
      "type": "function"
    },
    {
      "inputs": [],
      "name": "owner",
      "outputs": [
        {
          "internalType": "address",
          "name": "",
          "type": "address"
        }
      ],
      "stateMutability": "view",
      "type": "function"
    },
    {
      "inputs": [
        {
          "internalType": "bytes32",
          "name": "",
          "type": "bytes32"
        }
      ],
      "name": "processedDataHashes",
      "outputs": [
        {
          "internalType": "bool",
          "name": "",
          "type": "bool"
        }
      ],
      "stateMutability": "view",
      "type": "function"
    },
    {
      "inputs": [],
      "name": "renounceOwnership",
      "outputs": [],
      "stateMutability": "nonpayable",
      "type": "function"
    },
    {
      "inputs": [
        {
          "internalType": "uint256",
          "name": "_newFeeRate",
          "type": "uint256"
        }
      ],
      "name": "setFeeRate",
      "outputs": [],
      "stateMutability": "nonpayable",
      "type": "function"
    },
    {
      "inputs": [
        {
          "internalType": "address",
          "name": "newOwner",
          "type": "address"
        }
      ],
      "name": "transferOwnership",
      "outputs": [],
      "stateMutability": "nonpayable",
      "type": "function"
    }
  ],
  "bytecode": "0x6080604052600860025534801561001557600080fd5b5033600073ffffffffffffffffffffffffffffffffffffffff168173ffffffffffffffffffffffffffffffffffffffff16036100895760006040517f1e4fbdf700000000000000000000000000000000000000000000000000000000815260040161008091906101a3565b60405180910390fd5b6100988161009e60201b60201c565b506101be565b60008060009054906101000a900473ffffffffffffffffffffffffffffffffffffffff169050816000806101000a81548173ffffffffffffffffffffffffffffffffffffffff021916908373ffffffffffffffffffffffffffffffffffffffff1602179055508173ffffffffffffffffffffffffffffffffffffffff168173ffffffffffffffffffffffffffffffffffffffff167f8be0079c531659141344cd1fd0a4f28419497f9722a3daafe3b4186f6b6457e060405160405180910390a35050565b600073ffffffffffffffffffffffffffffffffffffffff82169050919050565b600061018d82610162565b9050919050565b61019d81610182565b82525050565b60006020820190506101b86000830184610194565b92915050565b610c25806101cd6000396000f3fe60806040526004361061007b5760003560e01c80638da5cb5b1161004e5780638da5cb5b14610119578063978bbdb914610144578063beaa030a1461016f578063f2fde38b146101ac5761007b565b806345596e2e1461008057806346faa48a146100a9578063715018a6146100e65780637b8958e6146100fd575b600080fd5b34801561008c57600080fd5b506100a760048036038101906100a291906106f5565b6101d5565b005b3480156100b557600080fd5b506100d060048036038101906100cb9190610758565b61022b565b6040516100dd91906107a0565b60405180910390f35b3480156100f257600080fd5b506100fb61024b565b005b61011760048036038101906101129190610819565b61025f565b005b34801561012557600080fd5b5061012e610488565b60405161013b9190610868565b60405180910390f35b34801561015057600080fd5b506101596104b1565b6040516101669190610892565b60405180910390f35b34801561017b57600080fd5b5061019660048036038101906101919190610758565b6104b7565b6040516101a391906107a0565b60405180910390f35b3480156101b857600080fd5b506101d360048036038101906101ce91906108ad565b6104e1565b005b6101dd610567565b6064811115610221576040517f08c379a000000000000000000000000000000000000000000000000000000000815260040161021890610937565b60405180910390fd5b8060028190555050565b60016020528060005260406000206000915054906101000a900460ff1681565b610253610567565b61025d60006105ee565b565b600034116102a2576040517f08c379a0000000000000000000000000000000000000000000000000000000008152600401610299906109a3565b60405180910390fd5b6001600083815260200190815260200160002060009054906101000a900460ff1615610303576040517f08c379a00000000000000000000000000000000000000000000000000000000081526004016102fa90610a0f565b60405180910390fd5b600073ffffffffffffffffffffffffffffffffffffffff168173ffffffffffffffffffffffffffffffffffffffff1603610372576040517f08c379a000000000000000000000000000000000000000000000000000000000815260040161036990610aa1565b60405180910390fd5b600180600084815260200190815260200160002060006101000a81548160ff02191690831515021790555060006103e8600254346103b09190610af0565b6103ba9190610b61565b9050600081346103ca9190610b92565b90506103d4610488565b73ffffffffffffffffffffffffffffffffffffffff166108fc839081150290604051600060405180830381858888f19350505050158015610419573d6000803e3d6000fd5b503373ffffffffffffffffffffffffffffffffffffffff168373ffffffffffffffffffffffffffffffffffffffff16857fdbff0f6167cb1555f383bf1bb1c42019597a22b32ef56e2ca5044beb754e5ec5848660405161047a929190610bc6565b60405180910390a450505050565b60008060009054906101000a900473ffffffffffffffffffffffffffffffffffffffff16905090565b60025481565b60006001600083815260200190815260200160002060009054906101000a900460ff169050919050565b6104e9610567565b600073ffffffffffffffffffffffffffffffffffffffff168173ffffffffffffffffffffffffffffffffffffffff160361055b5760006040517f1e4fbdf70000000000000000000000000000000000000000000000000000000081526004016105529190610868565b60405180910390fd5b610564816105ee565b50565b61056f6106b2565b73ffffffffffffffffffffffffffffffffffffffff1661058d610488565b73ffffffffffffffffffffffffffffffffffffffff16146105ec576105b06106b2565b6040517f118cdaa70000000000000000000000000000000000000000000000000000000081526004016105e39190610868565b60405180910390fd5b565b60008060009054906101000a900473ffffffffffffffffffffffffffffffffffffffff169050816000806101000a81548173ffffffffffffffffffffffffffffffffffffffff021916908373ffffffffffffffffffffffffffffffffffffffff1602179055508173ffffffffffffffffffffffffffffffffffffffff168173ffffffffffffffffffffffffffffffffffffffff167f8be0079c531659141344cd1fd0a4f28419497f9722a3daafe3b4186f6b6457e060405160405180910390a35050565b600033905090565b600080fd5b6000819050919050565b6106d2816106bf565b81146106dd57600080fd5b50565b6000813590506106ef816106c9565b92915050565b60006020828403121561070b5761070a6106ba565b5b6000610719848285016106e0565b91505092915050565b6000819050919050565b61073581610722565b811461074057600080fd5b50565b6000813590506107528161072c565b92915050565b60006020828403121561076e5761076d6106ba565b5b600061077c84828501610743565b91505092915050565b60008115159050919050565b61079a81610785565b82525050565b60006020820190506107b56000830184610791565b92915050565b600073ffffffffffffffffffffffffffffffffffffffff82169050919050565b60006107e6826107bb565b9050919050565b6107f6816107db565b811461080157600080fd5b50565b600081359050610813816107ed565b92915050565b600080604083850312156108305761082f6106ba565b5b600061083e85828601610743565b925050602061084f85828601610804565b9150509250929050565b610862816107db565b82525050565b600060208201905061087d6000830184610859565b92915050565b61088c816106bf565b82525050565b60006020820190506108a76000830184610883565b92915050565b6000602082840312156108c3576108c26106ba565b5b60006108d184828501610804565b91505092915050565b600082825260208201905092915050565b7f46656520726174652063616e6e6f742065786365656420313025000000000000600082015250565b6000610921601a836108da565b915061092c826108eb565b602082019050919050565b6000602082019050818103600083015261095081610914565b9050919050565b7f4e6f20696d75612073656e740000000000000000000000000000000000000000600082015250565b600061098d600c836108da565b915061099882610957565b602082019050919050565b600060208201905081810360008301526109bc81610980565b9050919050565b7f44617461206861736820616c72656164792070726f6365737365640000000000600082015250565b60006109f9601b836108da565b9150610a04826109c3565b602082019050919050565b60006020820190508181036000830152610a28816109ec565b9050919050565b7f496e76616c696420726563697069656e74204220636861696e2061646472657360008201527f7300000000000000000000000000000000000000000000000000000000000000602082015250565b6000610a8b6021836108da565b9150610a9682610a2f565b604082019050919050565b60006020820190508181036000830152610aba81610a7e565b9050919050565b7f4e487b7100000000000000000000000000000000000000000000000000000000600052601160045260246000fd5b6000610afb826106bf565b9150610b06836106bf565b9250828202610b14816106bf565b91508282048414831517610b2b57610b2a610ac1565b5b5092915050565b7f4e487b7100000000000000000000000000000000000000000000000000000000600052601260045260246000fd5b6000610b6c826106bf565b9150610b77836106bf565b925082610b8757610b86610b32565b5b828204905092915050565b6000610b9d826106bf565b9150610ba8836106bf565b9250828203905081811115610bc057610bbf610ac1565b5b92915050565b6000604082019050610bdb6000830185610883565b610be86020830184610883565b939250505056fea26469706673582212203b31cab2df707e2f886ea32387bb0aa6724943a65662c9e370932b55d6a97fcf64736f6c634300081c0033",
  "linkReferences": {},
  "deployedLinkReferences": {}
}